:020000040800F2
:1000000000000220051B00089D190008A519000822
:10001000AD190008B5190008BD190008000000005E
:10002000000000000000000000000000D184000873
:10003000C519000800000000218700083D7C000869
:10004000551B0008551B0008551B0008551B0008D0
:10005000551B0008551B0008551B0008551B0008C0
:10006000551B0008551B0008551B0008551B0008B0
:10007000551B0008551B0008551B0008551B0008A0
:10008000551B0008551B0008551B00080000000008
:10009000000000000000000000000000551B0008E8
:1000A000551B0008D5190008551B0008551B0008F2
:1000B000E9190008FD190008111A0008551B00086D
:1000C000551B0008551B0008551B0008551B000850
:1000D000551B0008551B0008251A000800000000E9
:1000E000391A0008551B0008551B000800000000C5
:1000F000000000000000000000000000551B000888
:1001000000000000551B0008551B0008551B000887
:1001100000000000000000000000000000000000DF
:10012000551B0008551B0008551B0008551B0008EF
:10013000551B000800000000000000000000000047
:10014000000000000000000000000000611A00082C
:10015000551B0008551B0008551B0008551B0008BF
:10016000551B0008551B000800000000000000009F
:10017000000000000000000000000000000000007F
:1001800000000000551B00080000000000000000F7
:08019000551B0008551B000877
:1001A00010B5054C237833B9044B13B10448AFF3B1
:1001B00000800123237010BD840100200000000096
:1001C00064D5000808B5034B1BB103490348AFF3DE
:1001D000008008BD000000008801002064D50008F0
:1001E00001F0FF01102A2BDB10F0070F08D010F8E8
:1001F000013B013A8B422DD010F0070F42B3F6D1EC
:10020000F0B441EA012141EA014122F007047FF004
:1002100000070023F0E80256083C85EA010586EA5B
:10022000010685FA47F5A3FA87F586FA47F6A5FA97
:1002300087F68EB9EED1F0BC01F0FF0102F00702A3
:1002400032B110F8013B013A83EA010313B1F8D14E
:100250000020704701387047002D06BF354603382F
:10026000073815F0010F07D1013015F4807F02BF68
:10027000013015F4C03F0130F0BC0138704700BFB9
:1002800053B94AB9002908BF00281CBF4FF0FF31FD
:100290004FF0FF3000F088B9ADF1080C6DE904CEE5
:1002A00000F006F8DDF804E0DDE9022304B0704751
:1002B0002DE9F047089D8E4604468846002B4AD11A
:1002C0008A42174662D9B2FA82F64EB1C6F12003CD
:1002D00001FA06F820FA03F3B74043EA0808B440ED
:1002E0004FEA174E1FFA87FCB8FBFEF1230C0EFBFA
:1002F000118843EA084301FB0CF29A4209D9FB1822
:1003000001F1FF3080F0EA809A4240F2E780023942
:100310003B449A1AA3B2B2FBFEF00EFB102243EA52
:10032000024300FB0CFC9C4509D9FB1800F1FF328D
:1003300080F0D6809C4540F2D3803B44023840EAAE
:100340000140A3EB0C0300211DB1F3400022C5E9DD
:100350000032BDE8F0878B4205D90DB1C5E9000137
:1003600000210846F5E7B3FA83F1002946D1734529
:1003700002D3824200F20581841A6EEB030201204F
:100380009046002DE5D0C5E90048E2E7002A00F0DC
:100390009080B2FA82F6002E40F0A4808A1A030CF4
:1003A0004FEA174E80B2BCB20121B2FBFEFC0EFB3D
:1003B0001C2243EA024304FB0CF29A4207D9FB18C1
:1003C0000CF1FF3802D29A4200F2E080C4469B1A38
:1003D000B3FBFEF20EFB123340EA034302FB04F4CC
:1003E0009C4207D9FB1802F1FF3002D29C4200F276
:1003F000CA8002461B1B42EA0C40A5E7C1F1200659
:100400008B4022FA06F71F430EFA01F420FA06F396
:100410002EFA06FE4FEA1749234300FA01F81FFAA5
:1004200087FCBEFBF9F01C0C09FB10EE44EA0E44FD
:1004300000FB0CFEA64502FA01F209D93C1900F1B5
:10044000FF3A80F09C80A64540F2998002383C44F7
:10045000A4EB0E041FFA83FEB4FBF9F309FB13446B
:100460004EEA044403FB0CFCA44508D93C1903F1F3
:10047000FF3E80F08280A4457FD9023B3C4443EAA2
:100480000040A4EB0C04A0FB02EC64457346E1467B
:1004900062D35FD05DB1B8EB030264EB090404FAE8
:1004A00006F622FA01F31E43CC40C5E900640021A0
:1004B0004FE7B1FBF2FC010C41EA0E4180B240EA89
:1004C00001423B4638463C46B846BE462026B1FB74
:1004D000F7F1A2EB080241EA0C4166E7014618E792
:1004E00010462CE7C6F120022EFA02F3B740B140C5
:1004F00020FA02F24FEA174E0A43B3FBFEF8BCB2F1
:100500000EFB1833110C41EA034108FB04F9B0401B
:1005100089454FEA104380B23ED9791808F1FF3C73
:1005200001D289451FD8A1EB0901B1FBFEF909FBF6
:1005300004F80EFB191192B242EA0142424529D257
:10054000BA1809F1FF31C4D24245C2D2A9F1020161
:100550003A44BEE7F0459DD2BEEB02036CEB070CBC
:100560000138E14696E7A7EB09094944A8F1020CD6
:10057000B1FBFEF909FB04F8DBE773467FE7504661
:1005800066E70846FDE63B44023A33E7ACF1020C6D
:100590003B441CE749469CE7A1EB0901C446B1FB7B
:1005A000FEF909FB04F8C4E7704700BF80B500AF4F
:1005B00001F0D2FA00F052F800F034FA00F032F90B
:1005C00000F086F900F004FA00F0DEF800F0D6F949
:1005D00000F0ACF800F058FD3C21154804F02BFB6E
:1005E0003C21144804F027FB134B1B789A00114B55
:1005F0001B685A62114B1B6803221946104805F00C
:1006000030F807F035FB0F4A00210F4807F07AFB5E
:1006100003460E4A13600E4A00210E4807F072FB93
:1006200003460D4A136007F047FB00BFFDE700BF1C
:100630003C02002084020020080000200C00002062
:100640001403002074D60008950B00085C030020FA
:1006500098D60008A90B00086003002080B594B06C
:1006600000AF07F120033022002118460CF09EFA5B
:1006700007F10C0300221A605A609A60DA601A616E
:100680000023BB60274B1B6C264A43F08053136446
:10069000244B1B6C03F08053BB60BB6800237B6062
:1006A000214B1B68204A43F4404313601E4B1B68D8
:1006B00003F440437B607B6801233B624FF480334B
:1006C0007B620223BB634FF48003FB630F233B6415
:1006D00090237B640423BB640523FB6407F12003A0
:1006E000184603F097FC0346002B01D000F004FBF2
:1006F0000F23FB6002233B6100237B614FF4805397
:10070000BB610023FB6107F10C030121184603F0D4
:10071000F9FE0346002B01D000F0EEFA00BF50377F
:10072000BD4680BD003802400070004080B500AF7B
:10073000124B134A1A60114B124A5A600F4B002297
:100740009A600E4B0022DA600C4B4FF480421A6123
:100750000A4B00225A61094B00229A61074B002282
:10076000DA61064B00221A62044801F06BFD034671
:10077000002B01D000F0C0FA00BF80BDA001002016
:1007800000540040A086010080B586B000AF07F19C
:10079000080300221A605A609A60DA603B46002221
:1007A0001A605A601E4B4FF080421A601C4B41F297
:1007B0006F725A601A4B00229A60194B4FF4D07234
:1007C000DA60174B00221A61154B00229A61144817
:1007D00004F0AAF80346002B01D000F08DFA4FF484
:1007E0008053BB6007F1080319460D4804F0A1FBD4
:1007F0000346002B01D000F07FFA00233B6000236A
:100800007B603B461946064804F0CEFD0346002BAC
:1008100001D000F071FA00BF1837BD4680BD00BF9F
:10082000F401002080B58CB000AF07F10C03242246
:10083000002118460CF0BAF93B1D00221A605A60DC
:10084000214B224A1A60204B00225A601E4B002284
:100850009A601D4B4FF6FF72DA601B4B4FF400722B
:100860001A61194B00229A610323FB6002233B614A
:1008700001237B610023BB610023FB6100233B62FA
:1008800001237B620023BB620023FB6207F10C03A0
:1008900019460D4804F029F90346002B01D000F059
:1008A0002BFA00237B600023BB603B1D19460648E2
:1008B00004F07AFD0346002B01D000F01DFA00BFC2
:1008C0003037BD4680BD00BF3C0200200004004020
:1008D00080B58CB000AF07F10C032422002118462C
:1008E0000CF064F93B1D00221A605A60214B224A29
:1008F0001A60204B00225A601E4B00229A601D4B4A
:100900004FF6FF72DA601B4B4FF400721A61194BFD
:1009100000229A610323FB6002233B6101237B6178
:100920000023BB610023FB6100233B6201237B6248
:100930000023BB620023FB6207F10C0319460D483C
:1009400004F0D3F80346002B01D000F0D5F90023C2
:100950007B600023BB603B1D1946064804F024FD64
:100960000346002B01D000F0C7F900BF3037BD4669
:1009700080BD00BF840200200008004080B500AFA9
:10098000114B124A1A60104B47F612225A600E4B56
:1009900000229A600C4B0022DA600B4B00221A6195
:1009A000094B0C225A61084B00229A61064B002227
:1009B000DA61054804F07AFD0346002B01D000F00F
:1009C0009BF900BF80BD00BFCC0200200010014099
:1009D00080B500AF114B124A1A60104B47F6122235
:1009E0005A600E4B00229A600C4B0022DA600B4BCF
:1009F00000221A61094B0C225A61084B00229A61AD
:100A0000064B0022DA61054804F050FD0346002B36
:100A100001D000F071F900BF80BD00BF14030020B9
:100A20000044004080B588B000AF07F10C030022FD
:100A30001A605A609A60DA601A610023BB60294B21
:100A40001B6B284A43F080031363264B1B6B03F098
:100A50008003BB60BB6800237B60224B1B6B214A79
:100A600043F0010313631F4B1B6B03F001037B6017
:100A70007B6800233B601B4B1B6B1A4A43F002034D
:100A80001363184B1B6B03F002033B603B684FF48E
:100A90007043FB604FF404133B6101237B6107F15A
:100AA0000C031946104801F031FA0823FB601223A9
:100AB0003B6100237B610323BB610923FB6107F1D9
:100AC0000C031946084801F021FA002205212820CC
:100AD00001F060F9282001F079F900BF2037BD4608
:100AE00080BD00BF003802400004024080B582B0E3
:100AF00000AF0346FB80FB88B3F5004F1CD0B3F575
:100B0000004F1BDCB3F5005F0CD0B3F5804F15D15F
:100B10000F4B1B78002B13D10E4A0F490F4800F0E2
:100B2000ABF90DE00A4B1B78002B0BD1094A0A499F
:100B30000A4800F0D1F905E000BF04E000BF02E080
:100B400000BF00E000BF00BF0837BD4680BD00BF4A
:100B5000080000207CEE0008F401002014030020AF
:100B600080B582B000AF7860074B1B78012B06D1AF
:100B7000064B1B6803221946054804F072FD00BFAE
:100B80000837BD4680BD00BF080000200C000020D3
:100B90001403002080B582B000AF78600BF024FB16
:100BA000642007F041F9FBE7B0B592B000AF786080
:100BB000304B1B68304A12685A62304B1B789A00DF
:100BC0002F4B1B685A622D492D4800F0B9F82B4B6A
:100BD0001B78002B15D1002000F0C4FA294B07F137
:100BE00034041D460FCD0FC42B68236007F1340376
:100BF0001946254800F086F824491E4800F09CF963
:100C000034E01E4B1B78012B19D1002000F0AAFA0A
:100C10001F4B07F120041D460FCD0FC42B68236026
:100C200007F120031946184800F06CF8194B1B68AF
:100C30001549184600F0A2F800F0ACFA16E00F4B88
:100C40001B78022B12D1002000F08CFA124B07F116
:100C50000C041D460FCD0FC42B68236007F10C0355
:100C60001946094800F04EF800F094FA0A2007F0FF
:100C7000DBF8A8E73C02002000000020080000206C
:100C80008402002094D500087CEE000888EE00085D
:100C9000A8D500080C000020BCD50008F0B593B022
:100CA00010AF78607B681B68104A934201D100F056
:100CB00075FF7B681B68B3F1804F13D10C4E0D4B51
:100CC0000E936D4606F110040FCC0FC50FCC0FC567
:100CD0000FCC0FC594E8030085E8030096E80F00E9
:100CE00000F09AF800BF0C37BD46F0BD000001408F
:100CF000140300200400002080B400AF72B600BFCF
:100D000000BFFDE780B584B002AF78603960012391
:100D100000930F237F220F21002000F085FB01218B
:100D2000012000F069FB7B68012200920ECB38683D
:100D300000F03CFB00F02EFA00BF0837BD4680BD36
:100D400080B485B000AF786039607B681B685B6AEF
:100D5000FB73FB7B092B05D97B681B6808225A6251
:100D60000823FB73FB7B9B08DAB23B681A7000BF59
:100D70001437BD465DF8047B7047000080B58CB029
:100D800002AF786039607B681B7887F827307B6812
:100D90005B7887F826307B689B7887F8253097F852
:100DA000272007F120031A4918460BF0DDFE97F8BB
:100DB000262007F11C03164918460BF0D5FE97F8BC
:100DC000252007F11803124918460BF0CDFE07F154
:100DD000200207F10C0007F11803019307F11C032F
:100DE000009313460B4A0B210BF088FE3221322070
:100DF00000F002FB3B6807F10C00012200920ECBD1
:100E000000F0D4FA00F0C6F900BF2837BD4680BD17
:100E1000D0D50008D8D5000884B080B582B000AF26
:100E200007F1100C8CE80F00124A3B1D12681146A6
:100E300019800233120C1A70391D4FF47A73032291
:100E400007F1100004F082FB4FF08043DA6ABB6DBB
:100E50001B689A4204D04FF08042BB6D1B68D3627E
:100E6000012006F0E1FF00BF0837BD46BDE8804025
:100E700004B07047E4D5000880B588B002AFF860D0
:100E8000B9607A60124A07F114031268114619809A
:100E90000233120C1A7007F114014FF47A73032213
:100EA000F86804F053FBB86803F08EFD50211E2053
:100EB00000F0A2FA7B68012200920ECB054800F0F8
:100EC00075FA00F067F900BF1837BD4680BD00BF56
:100ED000F4D50008E8D5000880B588B002AFF86006
:100EE000B9607A60B86803F0D1FD114A07F11403C4
:100EF0001268114619800233120C1A7007F114019E
:100F00004FF47A730322F86804F020FB50211E206E
:100F100000F072FA7B68012200920ECB054800F0C7
:100F200045FA00F037F900BF1837BD4680BD00BF55
:100F300008D60008F8D5000880B588B002AF786000
:100F400039607B681B685B6A2D4A13602C4B1B68F9
:100F50009B082C4A13602B4B1A6813465B00134402
:100F6000DB001A46284BB3FBF2F3284A1360244BEC
:100F70001B684EF66022934203D8214B1B68772BE7
:100F800009D87B681B6878225A621E4B1E221A60A1
:100F90001E4BD0221A601A4B1B68B3F5966F0CD902
:100FA0007B681B684FF496625A62164B4FF4967238
:100FB0001A60164B40F623021A60124B1B68184643
:100FC00007F114030A2219460BF054FD07F114022D
:100FD00007F10C030E4918460BF0C6FD1E21302008
:100FE00000F00AFA3B6807F10C00012200920ECBD8
:100FF00000F0DCF900F0CEF800BF1837BD4680BD28
:101000000000002010000020C0270900040000207C
:101010000CD6000880B400AF00BFBD465DF8047B6D
:101020007047000080B586B004AF0346FB714FF0F7
:10103000FF33029301230193FB1D00930123002240
:101040007821034801F042FA00BF0837BD4680BD51
:10105000A001002080B586B004AF786039603B689D
:101060009BB24FF0FF32029201937B680093012301
:1010700040227821034801F029FA00BF0837BD4615
:1010800080BD00BFA001002080B500AFFFF7C2FF08
:10109000642000F0A3FD002000F046FA2020FFF7B6
:1010A000C1FF0020FFF7BEFFB020FFF7BBFFC82045
:1010B000FFF7B8FFA120FFF7B5FFA120FFF7B2FFB0
:1010C000C820FFF7AFFF0020FFF7ACFF1020FFF7AD
:1010D000A9FF4020FFF7A6FFFF2000F011FAA6208D
:1010E000FFF7A0FFA820FFF79DFF3F20FFF79AFF23
:1010F000A420FFF797FFD320FFF794FF0020FFF70E
:1011000091FFD520FFF78EFFF020FFF78BFFD9204E
:10111000FFF788FF2220FFF785FFDA20FFF782FF25
:101120001220FFF77FFFDB20FFF77CFF8D20FFF70A
:1011300079FF1420FFF776FF012000F0F5F9002079
:1011400000F010F800F026F8054B00221A80044B3E
:1011500000225A80024B01221A7100BF80BD00BFDD
:101160006807002080B582B000AF0346FB71FB79B1
:10117000002B01D1002300E0FF234FF480621946C9
:1011800003480BF013FD00BF0837BD4680BD00BF0C
:101190006803002080B582B000AF0023FB7116E029
:1011A000FB79503BDBB21846FFF73CFF0020FFF70E
:1011B00039FF1020FFF736FFFB79DB01084A1344A3
:1011C00080211846FFF746FFFB790133FB71FB795D
:1011D000072BE5D900BF00BF0837BD4680BD00BF63
:1011E0006803002080B483B000AF0346FB710B4658
:1011F000BB7113467B7197F90730002B3DDBBB7940
:101200003F2B3AD87B79012B1AD1FA79BB79DB08CD
:10121000D8B20346DB0113441B4AD35C5AB2BB79F4
:1012200003F00703012101FA03F35BB2134359B240
:10123000FA790346DB011344C9B2134AD1541DE0C5
:10124000FA79BB79DB08D8B20346DB0113440E4AB6
:10125000D35C5AB2BB7903F00703012101FA03F30F
:101260005BB2DB435BB2134059B2FA790346DB0150
:101270001344C9B2044AD15400E000BF0C37BD4644
:101280005DF8047B704700BF6803002090B589B00B
:1012900000AF0446384680E80E002346FB73FB7B14
:1012A0001F2B02D9FB7B7E2B01D9002377E03E4B1D
:1012B0001B881A463B781344802B06DC3A4B5B882C
:1012C0001A467B781344402B01DD002367E000239E
:1012D000FB614EE07A68FB7B203B797801FB03F3EE
:1012E0001946FB690B445B0013441B887B61002398
:1012F000BB6136E07A69BB6902FA03F303F4004389
:10130000002B13D0284B1B88DAB2BB69DBB2134425
:10131000D8B2254B5B88DAB2FB69DBB21344DBB28F
:1013200097F830201946FFF75DFF17E01E4B1B882A
:10133000DAB2BB69DBB21344D8B21B4B5B88DAB2BA
:10134000FB69DBB21344D9B297F83030002B0CBFE5
:1013500001230023DBB21A46FFF744FFBB690133C8
:10136000BB613B781A46BB699342C3D3FB69013327
:10137000FB617B781A46FB699342ABD30A4B1B880F
:10138000BA68002A05D0B968FA7B203A0A44127874
:1013900000E03A7813449AB2034B1A80FB7B18465C
:1013A0002437BD4690BD00BF6807002080B586B0D9
:1013B00002AFF860384680E80E0013E0FB6818784A
:1013C0003B7E00933B460ECBFFF760FF03461A4679
:1013D000FB681B789A4202D0FB681B7808E0FB6828
:1013E0000133FB60FB681B78002BE7D1FB681B789F
:1013F00018461037BD4680BD80B483B000AF0346A9
:101400000A46FB711346BB71FB799AB2054B1A80F1
:10141000BB799AB2034B5A8000BF0C37BD465DF8CA
:10142000047B70476807002090B589B000AF044680
:10143000084611461A462346FB710346BB710B460C
:101440007B7113463B717A79FB79D31A002BB8BFB5
:101450005B42BB613A79BB79D31A002BB8BF5B42C0
:101460007B61FA797B799A4201D2012301E04FF046
:10147000FF333B61BA793B799A4201D2012301E003
:101480004FF0FF33FB60BA697B69D31AFB6197F8B1
:10149000302039797B791846FFF7A4FE24E097F8CD
:1014A0003020B979FB791846FFF79CFEFB695B0099
:1014B000BB607B695B42BA689A4208DDFA697B6966
:1014C000D31AFB613B69DAB2FB791344FB71BA684A
:1014D000BB699A4208DAFA69BB691344FB61FB688D
:1014E000DAB2BB791344BB71FA797B799A42D6D1CF
:1014F000BA793B799A42D2D100BF2437BD4690BD1C
:1015000080B584B000AF0346FB718123FB73FB7B86
:101510001846FFF787FDFB791846FFF783FD00BFEC
:101520001037BD4680BD000080B584B000AF0346D3
:10153000FB71FB79002B05D0AF23FB73084B012215
:101540005A7104E0AE23FB73054B00225A71FB7BFA
:101550001846FFF767FD00BF1037BD4680BD00BFCE
:101560006807002080B582B000AF00237B60124B7B
:101570005B6C114A43F4804353640F4B5B6C03F480
:1015800080437B607B6800233B600B4B1B6C0A4AEB
:1015900043F080531364084B1B6C03F080533B6093
:1015A0003B6800220F216FF0010000F0F3FB00BF49
:1015B0000837BD4680BD00BF0038024080B58AB004
:1015C00000AF786007F1140300221A605A609A6035
:1015D000DA601A617B681B68194A93422CD1002398
:1015E0003B61184B1B6B174A43F002031363154B07
:1015F0001B6B03F002033B613B694FF440737B615B
:101600001223BB610023FB6103233B6204237B6243
:1016100007F1140319460C4800F078FC0023FB6026
:10162000084B1B6C074A43F400131364054B1B6CF7
:1016300003F40013FB60FB6800BF2837BD4680BD84
:1016400000540040003802400004024080B584B0DD
:1016500000AF78607B681B68B3F1804F15D1002321
:10166000FB600C4B1B6C0B4A43F001031364094BEA
:101670001B6C03F00103FB60FB68002205211C20AA
:1016800000F088FB1C2000F0A1FB00BF1037BD4616
:1016900080BD00BF0038024080B58CB000AF7860DC
:1016A00007F11C0300221A605A609A60DA601A611E
:1016B0007B681B683A4A934234D10023BB61394BA3
:1016C0001B6C384A43F002031364364B1B6C03F067
:1016D0000203BB61BB6900237B61324B1B6B314A48
:1016E00043F0020313632F4B1B6B03F002037B6178
:1016F0007B693023FB6102233B6201237B6202236F
:10170000BB620223FB6207F11C031946264800F066
:10171000FDFB002205211D2000F03CFB1D2000F0F8
:1017200055FB38E07B681B68204A934233D1002385
:101730003B611C4B1B6C1B4A43F004031364194BA5
:101740001B6C03F004033B613B690023FB60154BFA
:101750001B6B144A43F002031363124B1B6B03F021
:101760000203FB60FB68C023FB6102233B62012391
:101770007B620223BB620223FB6207F11C03194652
:10178000094800F0C3FB002205211E2000F002FBE7
:101790001E2000F01BFB00BF3037BD4680BD00BFE0
:1017A00000040040003802400004024000080040ED
:1017B00080B58CB000AF786007F11C0300221A607E
:1017C0005A609A60DA601A617B681B68364A9342F5
:1017D0002DD10023BB61354B5B6C344A43F01003C1
:1017E0005364324B5B6C03F01003BB61BB69002395
:1017F0007B612E4B1B6B2D4A43F0010313632B4B74
:101800001B6B03F001037B617B694FF4C063FB61D9
:1018100002233B6200237B620323BB620723FB623C
:1018200007F11C031946224800F070FB38E07B6882
:101830001B68204A934233D100233B611B4B1B6C36
:101840001A4A43F400331364184B1B6C03F400333F
:101850003B613B690023FB60144B1B6B134A43F055
:1018600001031363114B1B6B03F00103FB60FB6867
:101870000C23FB6102233B6200237B620223BB62D9
:101880000723FB6207F11C031946094800F03EFBE1
:1018900000220521262000F07DFA262000F096FA8D
:1018A00000BF3037BD4680BD001001400038024007
:1018B000000002400044004080B58CB000AF78606A
:1018C0000023BB6200237B620023BB602E4B5B6C5A
:1018D0002D4A43F0010353642B4B5B6C03F001036F
:1018E000BB60BB6807F10C0207F1100311461846F4
:1018F00002F0E8FF02F0D2FFB862BB6A234AA2FB03
:1019000003239B0C013B7B62214B224A1A60204B34
:1019100040F2E732DA601E4A7B6A53601C4B0022B9
:101920001A611B4B00229A60194B00229A611848D9
:1019300002F0FAFF034687F82F3097F82F30002B7C
:101940001BD1134803F040F8034687F82F3097F86F
:101950002F30002B11D1192000F038FA7B680F2BA3
:1019600008D800227968192000F014FA0A4A7B6826
:10197000136002E0012387F82F3097F82F301846C4
:101980003037BD4680BD00BF0038024083DE1B43B8
:1019900070070020000001401800002080B400AF54
:1019A00000BFFDE780B400AF00BFFDE780B400AF2B
:1019B00000BFFDE780B400AF00BFFDE780B400AF1B
:1019C00000BFFDE780B400AF00BFBD465DF8047BFB
:1019D0007047000080B500AF024803F0BAF900BFBD
:1019E00080BD00BF7007002080B500AF024803F043
:1019F000B0F900BF80BD00BFF401002080B500AF8A
:101A0000024803F0A6F900BF80BD00BF3C020020E1
:101A100080B500AF024803F09CF900BF80BD00BF55
:101A20008402002080B500AF024803F03FFE00BFF3
:101A300080BD00BF1403002080B500AF4FF480507C
:101A400000F0E8FB4FF4005000F0E4FB4FF480405E
:101A500000F0E0FB4FF4004000F0DCFB00BF80BD75
:101A600080B500AF024801F0DEF900BF80BD00BFC5
:101A70008856002080B586B000AF7860144A154BB8
:101A8000D31A7B617B693B61134B1B68002B02D12E
:101A9000114B124A1A60104B1A687B6813443A695A
:101AA0009A4207D20BF0E8F803460C221A604FF076
:101AB000FF3309E0084B1B68FB60074B1A687B6823
:101AC0001344054A1360FB6818461837BD4680BDAD
:101AD0000000022000040000B8070020C85C0020BD
:101AE00080B400AF064BD3F88830054A43F4700346
:101AF000C2F8883000BFBD465DF8047B704700BF68
:101B000000ED00E0DFF834D0FFF7EAFF0C480D49A4
:101B10000D4A002302E0D458C4500433C4188C4248
:101B2000F9D30A4A0A4C002301E013600432A242AE
:101B3000FBD30BF0A7F8FEF739FD70470000022039
:101B4000000000208401002014EF00088401002020
:101B5000C85C0020FEE7000080B500AF0E4B1B689C
:101B60000D4A43F4007313600B4B1B680A4A43F49D
:101B700080631360084B1B68074A43F4807313604B
:101B8000032000F0FCF80F20FFF796FEFFF7EAFCB9
:101B90000023184680BD00BF003C024080B400AF67
:101BA000064B1B781A46064B1B681344044A136005
:101BB00000BFBD465DF8047B704700BF1C000020DD
:101BC000BC07002080B400AF034B1B681846BD461D
:101BD0005DF8047B704700BFBC07002080B584B06F
:101BE00000AF7860FFF7EEFFB8607B68FB60FB68D2
:101BF000B3F1FF3F05D00A4B1B781A46FB6813442C
:101C0000FB6000BFFFF7DEFF0246BB68D31AFA682D
:101C10009A42F7D800BF00BF1037BD4680BD00BF55
:101C20001C00002080B485B000AF78607B6803F0B2
:101C30000703FB600C4BDB68BB60BA684FF6FF0321
:101C40001340BB60FB681A02BB68134343F0BF63D9
:101C500043F40033BB60044ABB68D36000BF143751
:101C6000BD465DF8047B704700ED00E080B400AF36
:101C7000044BDB681B0A03F007031846BD465DF8FA
:101C8000047B704700ED00E080B483B000AF0346F2
:101C9000FB7197F90730002B0BDBFB7903F01F0278
:101CA000074997F907305B09012000FA02F241F871
:101CB000232000BF0C37BD465DF8047B704700BF92
:101CC00000E100E080B483B000AF03463960FB71EF
:101CD00097F90730002B0ADB3B68DAB20C4997F919
:101CE00007301201D2B20B4483F800230AE03B68AC
:101CF000DAB20849FB7903F00F03043B1201D2B2B8
:101D00000B441A7600BF0C37BD465DF8047B704764
:101D100000E100E000ED00E080B489B000AFF860C1
:101D2000B9607A60FB6803F00703FB61FB69C3F1EC
:101D30000703042B28BF0423BB61FB690433062B74
:101D400002D9FB69033B00E000237B614FF0FF32C7
:101D5000BB6902FA03F3DA43BB681A407B699A4015
:101D60004FF0FF317B6901FA03F3D9437B680B40E5
:101D7000134318462437BD465DF8047B704780B591
:101D800082B000AF78607868FFF74CFF00BF08377B
:101D9000BD4680BD80B586B000AF0346B9607A60AD
:101DA000FB7300237B61FFF761FF78617A68B96894
:101DB0007869FFF7B1FF024697F90F3011461846D0
:101DC000FFF780FF00BF1837BD4680BD80B582B0E9
:101DD00000AF0346FB7197F907301846FFF754FF31
:101DE00000BF0837BD4680BD80B584B000AF7860C5
:101DF0007B689B6DFB60FFF7E5FEB8607B6893F83E
:101E00003530DBB2022B08D07B6880225A657B68B4
:101E1000002283F83420012352E07B681B681A6893
:101E20007B681B6822F016021A607B681B685A697F
:101E30007B681B6822F080025A617B681B6C002B58
:101E400003D17B689B6C002B07D07B681B681A68EA
:101E50007B681B6822F008021A607B681B681A689E
:101E60007B681B6822F001021A6013E0FFF7AAFEEC
:101E70000246BB68D31A052B0CD97B6820225A6511
:101E80007B68032283F835207B68002283F83420A6
:101E9000032315E07B681B681B6803F00103002B1C
:101EA000E4D17B68DB6D3F229A40FB689A607B68D7
:101EB000012283F835207B68002283F83420002338
:101EC00018461037BD4680BD80B483B000AF78603F
:101ED0007B6893F83530DBB2022B04D07B6880221C
:101EE0005A6501230CE07B68052283F835207B6866
:101EF0001B681A687B681B6822F001021A600023C5
:101F000018460C37BD465DF8047B704780B489B035
:101F100000AF7860396000237B6100233B610023C0
:101F2000BB610023FB6159E10122FB6902FA03F363
:101F30007B613B681B687A6913403B613A697B6946
:101F40009A4240F048813B685B6803F00303012B31
:101F500005D03B685B6803F00303022B30D17B683C
:101F60009B68BB61FB695B00032202FA03F3DB435E
:101F7000BA691340BB613B68DA68FB695B0002FA2F
:101F800003F3BA691343BB617B68BA699A607B68E3
:101F90005B68BB610122FB6902FA03F3DB43BA69A8
:101FA0001340BB613B685B681B0903F00102FB69DE
:101FB00002FA03F3BA691343BB617B68BA695A60DA
:101FC0003B685B6803F00303032B17D07B68DB6877
:101FD000BB61FB695B00032202FA03F3DB43BA69CE
:101FE0001340BB613B689A68FB695B0002FA03F32C
:101FF000BA691343BB617B68BA69DA603B685B68A6
:1020000003F00303022B23D1FB69DA087B68083253
:1020100053F82230BB61FB6903F007039B000F22DA
:1020200002FA03F3DB43BA691340BB613B681A69E8
:10203000FB6903F007039B0002FA03F3BA69134339
:10204000BB61FB69DA087B680832B96943F8221082
:102050007B681B68BB61FB695B00032202FA03F328
:10206000DB43BA691340BB613B685B6803F0030262
:10207000FB695B0002FA03F3BA691343BB617B6837
:10208000BA691A603B685B6803F44033002B00F0C8
:10209000A2800023FB60574B5B6C564A43F480439D
:1020A0005364544B5B6C03F48043FB60FB68524AFF
:1020B000FB699B08023352F82330BB61FB6903F0D4
:1020C00003039B000F2202FA03F3DB43BA691340B8
:1020D000BB617B68494A934219D07B68484A934266
:1020E00013D07B68474A93420DD07B68464A93429F
:1020F00007D07B68454A934201D1042308E00723B7
:1021000006E0032304E0022302E0012300E00023B1
:10211000FA6902F0030292009340BA691343BB616B
:102120003549FB699B080233BA6941F82320384BD3
:102130009B68BB613B69DB43BA691340BB613B6889
:102140005B6803F48013002B03D0BA693B69134327
:10215000BB612F4ABB6993602D4BDB68BB613B6958
:10216000DB43BA691340BB613B685B6803F400134F
:10217000002B03D0BA693B691343BB61244ABB6996
:10218000D360234B5B68BB613B69DB43BA69134097
:10219000BB613B685B6803F40033002B03D0BA6972
:1021A0003B691343BB611A4ABB695360184B1B68F8
:1021B000BB613B69DB43BA691340BB613B685B6849
:1021C00003F48033002B03D0BA693B691343BB612E
:1021D0000F4ABB691360FB690133FB61FB690F2B7D
:1021E0007FF6A2AE00BF00BF2437BD465DF8047B7A
:1021F000704700BF00380240003801400000024034
:102200000004024000080240000C0240001002409E
:10221000003C014080B582B000AF0346FB80084B14
:102220005A69FB881340002B06D0054AFB8853618E
:10223000FB881846FEF75AFC00BF0837BD4680BD34
:10224000003C014080B584B000AF78607B68002B13
:1022500001D101232BE17B6893F83D30DBB2002BE9
:1022600006D17B68002283F83C207868FFF7A6F946
:102270007B68242283F83D207B681B681A687B6892
:102280001B6822F001021A607B681B681A687B6871
:102290001B6842F400421A607B681B681A687B68FE
:1022A0001B6822F400421A6002F0E4FAF8607B68CE
:1022B0005B68814A934207D8FB68804A934294BF87
:1022C00001230023DBB206E0FB687D4A934294BF02
:1022D00001230023DBB2002B01D00123E7E0FB68E0
:1022E000784AA2FB03239B0CBB607B681B685B687E
:1022F00023F03F017B681B68BA680A435A607B6819
:102300001B681B6A23F03F017B685B686A4A934243
:1023100002D8BB68013309E0BB684FF4967202FB38
:1023200003F3694AA2FB03239B0901337A6812680D
:102330000B4313627B681B68DB6923F44F4222F076
:10234000FF027B685B685C498B4219D8FB68591EA9
:102350007B685B685B00B1FBF3F3591C40F6FC73D0
:102360000B40002B0AD0FB68591E7B685B685B0042
:10237000B1FBF3F30133C3F30B0351E004234FE04C
:102380007B689B68002B11D1FB68581E7B685968DD
:102390000B465B000B44B0FBF3F30133C3F30B03B9
:1023A000002B0CBF01230023DBB212E0FB68581E98
:1023B0007B6859680B469B000B4499000B44B0FBAB
:1023C000F3F30133C3F30B03002B0CBF01230023F2
:1023D000DBB2002B01D0012322E07B689B68002B3D
:1023E0000ED1FB68581E7B6859680B465B000B4496
:1023F000B0FBF3F30133C3F30B0343F400430FE0EB
:10240000FB68581E7B6859680B469B000B4499007B
:102410000B44B0FBF3F30133C3F30B0343F440432A
:10242000796809681343CB617B681B681B6823F0DC
:10243000C0017B68DA697B681B6A1A437B681B688A
:102440000A431A607B681B689B6823F4034323F0EC
:10245000FF037A6811697A68D26811437A68126852
:102460000B4393607B681B68DB6823F0FF017B688C
:102470005A697B689B691A437B681B680A43DA6068
:102480007B681B681A687B681B6842F001021A604F
:102490007B6800221A647B68202283F83D207B68D9
:1024A00000221A637B68002283F83E20002318462E
:1024B0001037BD4680BD00BFA08601007F841E008E
:1024C000FF083D0083DE1B43D34D621080B588B00A
:1024D00002AFF860084611461A4603467B810B4658
:1024E0003B811346FB80FFF76DFB7861FB6893F837
:1024F0003D30DBB2202B40F0D9807B69009319235B
:1025000001226D49F86800F071F90346002B01D0F3
:102510000223CCE0FB6893F83C30012B01D102236D
:10252000C5E0FB68012283F83C20FB681B681B6840
:1025300003F00103012B07D0FB681B681A68FB68D6
:102540001B6842F001021A60FB681B681A68FB688E
:102550001B6822F400621A60FB68212283F83D2088
:10256000FB68402283F83E20FB6800221A64FB6867
:102570003A6A5A62FB68BA8C5A85FB685B8D9AB2DC
:10258000FB681A85FB684D4ADA62F8883A897989CE
:102590007B690193BB6A00930346F86800F090F8EA
:1025A0000346002B52D0012381E07A69B96AF868AA
:1025B00000F036FA0346002B0DD0FB681B6C042B91
:1025C00007D1FB681B681A68FB681B6842F400723D
:1025D0001A6001236BE0FB685B6A1A78FB681B6872
:1025E0001A61FB685B6A5A1CFB685A62FB681B8DA8
:1025F000013B9AB2FB681A85FB685B8D9BB2013B7D
:102600009AB2FB685A85FB681B685B6903F0040398
:10261000042B1BD1FB681B8D002B17D0FB685B6A5A
:102620001A78FB681B681A61FB685B6A5A1CFB68B6
:102630005A62FB681B8D013B9AB2FB681A85FB68E6
:102640005B8D9BB2013B9AB2FB685A85FB681B8D80
:10265000002BAAD17A69B96AF86800F029FA034612
:10266000002B0DD0FB681B6C042B07D1FB681B688B
:102670001A68FB681B6842F400721A60012316E0B6
:10268000FB681B681A68FB681B6842F400721A60DA
:10269000FB68202283F83D20FB68002283F83E205F
:1026A000FB68002283F83C20002300E00223184648
:1026B0001837BD4680BD00BF020010000000FFFFBC
:1026C00080B588B002AFF860084611461A46034646
:1026D0007B810B463B811346FB80FB681B681A68B5
:1026E000FB681B6842F480721A607B6A00933B6A45
:1026F00000224FF00111F86800F078F80346002B33
:102700000DD0FB681B681B6803F48073B3F5807FF2
:1027100003D1FB684FF400721A6403235FE07B89E6
:10272000DBB21A46FB681B6802F0FE021A617B6A84
:102730003A6A2D49F86800F0D3F80346002B01D01F
:1027400001234CE000237B61FB681B685B697B61B4
:10275000FB681B689B697B617B697A6A396AF868E8
:1027600000F05EF90346002B0DD0FB681B6C042BB8
:1027700007D1FB681B681A68FB681B6842F400728B
:102780001A6001232BE0FB88012B05D13B89DAB2CB
:10279000FB681B681A6121E03B891B0A9BB2DAB215
:1027A000FB681B681A617A6A396AF86800F038F9C0
:1027B0000346002B0DD0FB681B6C042B07D1FB6874
:1027C0001B681A68FB681B6842F400721A600123D8
:1027D00005E03B89DAB2FB681B681A6100231846E2
:1027E0001837BD4680BD00BF0200010080B584B02F
:1027F00000AFF860B9603B601346FB7148E03B688E
:10280000B3F1FF3F44D0FFF7DDF90246BB69D31AAD
:102810003A689A4202D33B68002B39D1BB681B0C43
:10282000DBB2012B0DD1FB681B685B69DA43BB6827
:1028300013409BB2002B0CBF01230023DBB21A46CE
:102840000CE0FB681B689B69DA43BB6813409BB2D2
:10285000002B0CBF01230023DBB21A46FB799A42FE
:1028600016D1FB6800221A63FB68202283F83D2002
:10287000FB68002283F83E20FB681B6C43F02002BB
:10288000FB681A64FB68002283F83C20012323E0E4
:10289000BB681B0CDBB2012B0DD1FB681B685B69AD
:1028A000DA43BB6813409BB2002B0CBF012300230B
:1028B000DBB21A460CE0FB681B689B69DA43BB6815
:1028C00013409BB2002B0CBF01230023DBB21A463E
:1028D000FB799A4293D0002318461037BD4680BD3D
:1028E00080B584B000AFF860B9607A603B6071E099
:1028F000FB681B685B6903F48063B3F5806F23D1C9
:10290000FB681B681A68FB681B6842F400721A6057
:10291000FB681B686FF480625A61FB6800221A63CF
:10292000FB68202283F83D20FB68002283F83E20CC
:10293000FB681B6C43F00402FB681A64FB6800220E
:1029400083F83C20012367E07B68B3F1FF3F41D06F
:10295000FFF738F902463B68D31A7A689A4202D3E5
:102960007B68002B36D1BB681B0CDBB2012B0CD172
:10297000FB681B685B69DA43BB6813409BB2002BA2
:1029800014BF01230023DBB20BE0FB681B689B69CB
:10299000DA43BB6813409BB2002B14BF0123002312
:1029A000DBB2002B16D0FB6800221A63FB682022E2
:1029B00083F83D20FB68002283F83E20FB681B6CF7
:1029C00043F02002FB681A64FB68002283F83C2075
:1029D000012321E0BB681B0CDBB2012B0CD1FB688F
:1029E0001B685B69DA43BB6813409BB2002B14BFC2
:1029F00001230023DBB20BE0FB681B689B69DA4311
:102A0000BB6813409BB2002B14BF01230023DBB231
:102A1000002B7FF46DAF002318461037BD4680BDF4
:102A200080B584B000AFF860B9607A6034E0F868CF
:102A300000F086F80346002B01D0012334E0BB6888
:102A4000B3F1FF3F28D0FFF7BDF802467B68D31AE9
:102A5000BA689A4202D3BB68002B1DD1FB681B6881
:102A60005B6903F08003802B16D0FB6800221A6399
:102A7000FB68202283F83D20FB68002283F83E207B
:102A8000FB681B6C43F02002FB681A64FB680022A1
:102A900083F83C20012307E0FB681B685B6903F0B7
:102AA0008003802BC3D1002318461037BD4680BD5C
:102AB00080B584B000AFF860B9607A6034E0F8683F
:102AC00000F03EF80346002B01D0012334E0BB6840
:102AD000B3F1FF3F28D0FFF775F802467B68D31AA1
:102AE000BA689A4202D3BB68002B1DD1FB681B68F1
:102AF0005B6903F00403042B16D0FB6800221A6301
:102B0000FB68202283F83D20FB68002283F83E20EA
:102B1000FB681B6C43F02002FB681A64FB68002210
:102B200083F83C20012307E0FB681B685B6903F026
:102B30000403042BC3D1002318461037BD4680BDC3
:102B400080B483B000AF78607B681B685B6903F476
:102B50008063B3F5806F1BD17B681B686FF4806264
:102B60005A617B6800221A637B68202283F83D202B
:102B70007B68002283F83E207B681B6C43F00402D4
:102B80007B681A647B68002283F83C20012300E004
:102B9000002318460C37BD465DF8047B704780B5AE
:102BA00086B002AF78607B68002B01D1012301E180
:102BB0007B681B68BB607B6893F89534DBB2002BA5
:102BC00006D17B68002283F89424786809F042FCDF
:102BD0007B68032283F89524BB68B3F1A04F02D130
:102BE0007B6800229A717B681B68184603F0CBFD56
:102BF0007B6818687B681A7C8DF8002004330ECB44
:102C000003F0AAFC0346002B05D07B68022283F860
:102C100095240123CEE07B681B680021184603F051
:102C2000C3FD0346002B05D07B68022283F8952460
:102C30000123BFE00023FB734AE0FA7B7968134667
:102C4000DB0013449B000B44153301221A70FA7BFE
:102C500079681346DB0013449B000B441433FA7B62
:102C60001A70FA7BFB7B98B279681346DB00134439
:102C70009B000B442E3302461A80FA7B7968134678
:102C8000DB0013449B000B44183300221A70FA7BBC
:102C900079681346DB0013449B000B441C3300226D
:102CA0001A60FA7B79681346DB0013449B000B44DF
:102CB000203300221A60FA7B79681346DB00134444
:102CC0009B000B44243300221A60FB7B0133FB730F
:102CD0007B681B79FA7B9A42AFD30023FB7344E0F5
:102CE000FA7B79681346DB0013449B000B4403F224
:102CF000552300221A70FA7B79681346DB001344CF
:102D00009B000B4403F51573FA7B1A70FA7B796804
:102D10001346DB0013449B000B4403F5167300229B
:102D20001A70FA7B79681346DB0013449B000B444E
:102D300003F5177300221A60FA7B79681346DB00EB
:102D400013449B000B4403F5187300221A60FA7BAE
:102D500079681346DB0013449B000B4403F5197399
:102D600000221A60FB7B0133FB737B681B79FA7BC3
:102D70009A42B5D37B6818687B681A7C8DF800206E
:102D800004330ECB03F05CFD0346002B05D07B68BB
:102D9000022283F8952401230CE07B6800225A74F8
:102DA0007B68012283F895247B681B68184604F031
:102DB000A6FD002318461037BD4680BD80B584B0FF
:102DC00000AF78607B681B68FB607B6893F8943485
:102DD000012B01D1022322E07B68012283F8942495
:102DE000FB68DB6803F04003002B09D07B685B7B4A
:102DF000012B05D1FB689B6B43F48032FB689A631F
:102E00007B681B68184603F0ADFC7B681B6818469E
:102E100004F054FD7B68002283F8942400231846B4
:102E20001037BD4680BD90B58DB000AF78607B682F
:102E30001B683B623B6AFB617B681B68184604F0B9
:102E400012FE0346002B40F08C847B681B681846FA
:102E500004F076FD0346002B00F08284FB6903F545
:102E600000639B681B0AC3F30D027B68C3F8D4247C
:102E70007B681B68184604F063FD034603F00203F9
:102E8000022B07D17B681B685A697B681B6802F0BC
:102E900002025A617B681B68184604F051FD034624
:102EA00003F01003102B61D17B681B689A697B6863
:102EB0001B6822F010029A613B6A1B6ABB61BB6906
:102EC00003F00F021346DB0013449B0003F5147359
:102ED0007A68134404337B61BB6903F4F013B3F5E0
:102EE000802F24D1BA6947F6F0731340002B35D0F8
:102EF0007B69D968BB691B099BB2C3F30A039BB208
:102F00001A46386A04F088FB7B69DA68BB691B09DA
:102F1000C3F30A031A447B69DA607B695A69BB69A7
:102F20001B09C3F30A031A447B695A6116E0BB69A3
:102F300003F4F013B3F5402F10D17B6803F29C43E8
:102F400008221946386A04F067FB7B695A69BB6935
:102F50001B09C3F30A031A447B695A617B681B6827
:102F60009A697B681B6842F010029A617B681B6853
:102F7000184604F0E5FC034603F40023B3F5002FE4
:102F800040F0A78000237B627B681B68184604F032
:102F9000EAFCB86299E0BB6A03F00103002B00F081
:102FA0008E807B681B687A6AD2B21146184604F09C
:102FB0000EFD38613B6903F00103002B0CD07B6AE6
:102FC0005A01FB69134403F530631A4601239360E9
:102FD000796A786800F08CFE3B6903F00803002BE7
:102FE0000CD07B6A5A01FB69134403F530631A461F
:102FF00008239360796A786800F062FF3B6903F008
:103000001003002B08D07B6A5A01FB69134403F5B7
:1030100030631A46102393603B6903F00203002BD0
:1030200030D03B6A5B6903F08003802B09D1FB69D8
:1030300003F500635B68FA6902F5006243F480639C
:1030400053607A6A1346DB0013449B0003F5147344
:103050007A68134404337B617B69DB78012B08D1E8
:103060007B690022DA707B6ADBB21946786809F066
:10307000EDFA7B6A5A01FB69134403F530631A4683
:10308000022393603B6903F02003002B08D07B6A86
:103090005A01FB69134403F530631A4620239360F9
:1030A0003B6903F40053002B09D07B6A5A01FB698A
:1030B000134403F530631A464FF4005393607B6A60
:1030C00001337B62BB6A5B08BB62BB6A002B7FF487
:1030D00062AF7B681B68184604F032FC034603F4B9
:1030E0008023B3F5802F40F0DB807B681B68184697
:1030F00004F053FCB86200237B62CDE0BB6A03F0AE
:103100000103002B00F0C2807B681B687A6AD2B290
:103110001146184604F079FC38613B6903F001035D
:10312000002B57D07B6A03F00F03012202FA03F34E
:10313000FB60FB6903F500635A6BFB68DB43F969CD
:1031400001F5006113404B637B6A5A01FB6913442C
:1031500003F510631A46012393607B689B79012B6A
:1031600032D179687A6A1346DB0013449B000B4422
:103170002033196878687A6A1346DB0013449B0091
:1031800003441C331B68194478687A6A1346DB00D1
:1031900013449B000344203319607B6A002B13D136
:1031A00079687A6A1346DB0013449B000B4424338E
:1031B0001B68002B08D17B6818687B6803F29C436E
:1031C0001A46012104F080FC7B6ADBB2194678685C
:1031D00009F0C1F93B6903F00803002B08D07B6AB2
:1031E0005A01FB69134403F510631A4608239360E0
:1031F0003B6903F01003002B08D07B6A5A01FB697E
:10320000134403F510631A46102393603B6903F0DF
:103210004003002B08D07B6A5A01FB69134403F575
:1032200010631A46402393603B6903F00203002BAE
:1032300023D0796A386A03F067FC7A6A1346DB00A8
:1032400013449B0010337A68134404337B617B6919
:10325000DB78012B08D17B690022DA707B6ADBB254
:103260001946786809F004FA7B6A5A01FB6913442D
:1032700003F510631A46022393603B6903F0800351
:10328000002B03D0796A786800F0A5FC7B6A0133D3
:103290007B62BB6A5B08BB62BB6A002B7FF42EAF0C
:1032A0007B681B68184604F04BFB034603F00043A1
:1032B000B3F1004F22D1FB6903F500635B68FA6943
:1032C00002F5006223F0010353607B6893F8CC346D
:1032D000012B08D17B68002283F8CC240021786878
:1032E00000F08CFE02E0786809F0A2F97B681B68A8
:1032F0005A697B681B6802F000425A617B681B6850
:10330000184604F01DFB034603F40063B3F5006F99
:1033100012D1FB6903F500639B6803F00103012BE5
:1033200002D1786809F05EF97B681B685A697B688E
:103330001B6802F400625A617B681B68184604F03F
:10334000FFFA034603F48053B3F5805F40F0B78083
:10335000FB6903F500635B68FA6902F5006223F01C
:10336000010353607B681B681021184603F0CCFBF7
:103370000023FB6246E0FB6A5A01FB69134403F534
:1033800010631A464FF67F339360FB6A5A01FB695C
:10339000134403F510631B68FA6A5101FA690A4481
:1033A00002F5106223F400131360FB6A5A01FB69F3
:1033B000134403F530631A464FF67F339360FB6A7C
:1033C0005A01FB69134403F530631B68FA6A510123
:1033D000FA690A4402F5306223F400131360FB6AB1
:1033E0005A01FB69134403F530631B68FA6A510103
:1033F000FA690A4402F5306243F000631360FB6A25
:103400000133FB627B681B791A46FB6A9342B2D395
:10341000FB6903F50063DB69FA6902F5006243F0BA
:103420000113D3617B68DB7B002B16D0FB6903F5AE
:103430000063D3F88430FA6902F5006243F00B03AD
:10344000C2F88430FB6903F500635B6CFA6902F52E
:10345000006243F00B03536415E0FB6903F500635E
:103460005B69FA6902F5006243F4005343F02B03F1
:103470005361FB6903F500631B69FA6902F5006299
:1034800043F00B031361FB6903F500631B68FA69E2
:1034900002F5006223F4FE6313607B6818687B68A2
:1034A00099797B6803F29C431A4604F00DFB7B6814
:1034B0001B685A697B681B6802F480525A617B68FA
:1034C0001B68184604F03CFA034603F40053B3F5B6
:1034D000005F23D17B681B68184604F0D2FA7B6832
:1034E0001B68184603F089FB03461A467B68DA71AD
:1034F0007B681C6801F0B2F901467B68DB791A46EB
:10350000204603F08DF8786809F04DF87B681B6859
:103510005A697B681B6802F400525A617B681B6819
:10352000184604F00DFA034603F00803082B0AD1ED
:10353000786809F02AF87B681B685A697B681B6801
:1035400002F008025A617B681B68184604F0F8F91B
:10355000034603F08003802B23D13B6A9B6923F051
:1035600080023B6A9A6101237B6214E079687A6A7F
:103570001346DB0013449B000B4403F257231B78D4
:10358000012B05D17B6ADBB21946786800F0F2FAAC
:103590007B6A01337B627B681B791A467B6A9342A4
:1035A000E4D37B681B68184604F0CAF9034603F4A9
:1035B0008013B3F5801F3CD101237B622BE07B6A33
:1035C0005A01FB69134403F510631B68BB617968FA
:1035D0007A6A1346DB0013449B000B4418331B78B4
:1035E000012B15D1BB69002B12DA79687A6A134670
:1035F000DB0013449B000B44173301221A707B6AD3
:10360000DBB263F07F03DBB21946786800F0B2FAF0
:103610007B6A01337B627B681B791A467B6A934223
:10362000CDD37B681B685A697B681B6802F48012E3
:103630005A617B681B68184604F082F9034603F45C
:103640000013B3F5001F56D101237B6245E07B6A6E
:103650005A01FB69134403F530631B68BB61796849
:103660007A6A1346DB0013449B000B4403F5167380
:103670001B78012B2ED1BB69002B2BDABB6903F41D
:1036800080327B68D3F8D43403F001039A4221D10D
:1036900079687A6A1346DB0013449B000B4403F2FB
:1036A000572301221A703B6A9B6943F080023B6AF0
:1036B0009A613B6A5B6903F08003002B0AD1FB69C6
:1036C00003F500635B68FA6902F5006243F4007376
:1036D000536008E07B6A01337B627B681B791A4682
:1036E0007B6A9342B3D37B681B685A697B681B680B
:1036F00002F400125A617B681B68184604F020F936
:10370000034603F08043B3F1804F0AD1786808F094
:10371000C1FF7B681B685A697B681B6802F08042A6
:103720005A617B681B68184604F00AF9034603F0E7
:103730000403042B15D17B681B685B68BB61BB6904
:1037400003F00403002B02D0786808F0B1FF7B6817
:103750001B6859687B681B68BA690A435A6000E0B5
:1037600000BF3437BD4690BD80B582B000AF7860F1
:103770000B46FB707B6893F89434012B01D1022334
:1037800012E07B68012283F894247B68FA785A74EB
:103790007B681B68FA781146184604F069F87B6864
:1037A000002283F89424002318460837BD4680BDC4
:1037B00080B584B000AF7860084611461A460346CB
:1037C000FB700B463B801346BB700023FB7297F9DE
:1037D0000330002B0FDAFB7803F00F021346DB00F7
:1037E00013449B0010337A6813440433FB60FB6876
:1037F00001225A700FE0FB7803F00F021346DB0042
:1038000013449B0003F514737A6813440433FB607C
:10381000FB6800225A70FB7803F00F03DAB2FB68F2
:103820001A703B88C3F30A02FB689A60FB68BA7897
:103830001A71FB685B78002B04D0FB681B781A4672
:10384000FB685A83BB78022B02D1FB6800225A71B5
:103850007B6893F89434012B01D102230EE07B683E
:10386000012283F894247B681B68F968184603F0EA
:10387000E9F97B68002283F89424FB7A1846103714
:10388000BD4680BD80B584B000AF78600B46FB704C
:1038900097F90330002B0FDAFB7803F00F02134681
:1038A000DB0013449B0010337A6813440433FB603D
:1038B000FB6801225A700FE0FB7803F00F021346F9
:1038C000DB0013449B0003F514737A68134404333C
:1038D000FB60FB6800225A70FB7803F00F03DAB23A
:1038E000FB681A707B6893F89434012B01D1022392
:1038F0000EE07B68012283F894247B681B68F968DA
:10390000184603F027FA7B68002283F894240023EA
:1039100018461037BD4680BD80B586B000AFF86050
:103920007A603B600B46FB72FB7A03F00F02134692
:10393000DB0013449B0003F51473FA68134404334B
:103940007B617B697A68DA607B693A681A617B69B6
:1039500000225A617B6900225A70FB7A03F00F0340
:10396000DAB27B691A70FB689B79012B02D17A6805
:103970007B69DA61FB681868FB689B791A4679698C
:1039800003F0C4FA002318461837BD4680BD80B541
:1039900086B000AFF8607A603B600B46FB72FB7A42
:1039A00003F00F021346DB0013449B001033FA6848
:1039B000134404337B617B697A68DA607B693A6817
:1039C0001A617B6900225A617B6901225A70FB7A75
:1039D00003F00F03DAB27B691A70FB689B79012B45
:1039E00002D17A687B69DA61FB681868FB689B79A9
:1039F0001A46796903F08AFA002318461837BD463B
:103A000080BD80B584B000AF78600B46FB70FB785A
:103A100003F00F037A681279934201D901234FE032
:103A200097F90330002B0FDAFB7803F00F021346EF
:103A3000DB0013449B0010337A6813440433FB60AB
:103A4000FB6801225A700DE0FA781346DB0013443C
:103A50009B0003F514737A6813440433FB60FB681E
:103A600000225A70FB6801229A70FB7803F00F0362
:103A7000DAB2FB681A707B6893F89434012B01D199
:103A800002231DE07B68012283F894247B681B6875
:103A9000F968184603F018FEFB7803F00F03002BBB
:103AA00009D17B6818687B6899797B6803F29C432D
:103AB0001A4604F009F87B68002283F89424002356
:103AC00018461037BD4680BD80B584B000AF786021
:103AD0000B46FB70FB7803F00F037A681279934270
:103AE00001D9012342E097F90330002B0FDAFB786C
:103AF00003F00F021346DB0013449B0010337A6877
:103B000013440433FB60FB6801225A700FE0FB781A
:103B100003F00F021346DB0013449B0003F51473FC
:103B20007A6813440433FB60FB6800225A70FB6818
:103B300000229A70FB7803F00F03DAB2FB681A7068
:103B40007B6893F89434012B01D102230EE07B684B
:103B5000012283F894247B681B68F968184603F0F7
:103B600021FE7B68002283F8942400231846103736
:103B7000BD4680BD80B584B000AF78600B46FB7059
:103B800097F90330002B0CDAFB7803F00F02134691
:103B9000DB0013449B0010337A6813440433FB604A
:103BA0000CE0FB7803F00F021346DB0013449B008C
:103BB00003F514737A6813440433FB607B681B6855
:103BC000F968184603F040FC0346FB72FB7A18467E
:103BD0001037BD4680BD80B58AB002AF78603960CD
:103BE0007B681B687B617B693B613A681346DB003D
:103BF00013449B0010337A6813440433FB60FB6862
:103C00005A69FB681B699A4201D901236BE0FB6882
:103C10001A69FB685B69D31AFB61FB689B68FA69E8
:103C20009A4202D9FB689B68FB61FB6903339B08DE
:103C3000BB612AE0FB681A69FB685B69D31AFB6108
:103C4000FB689B68FA699A4202D9FB689B68FB6132
:103C5000FB6903339B08BB61FB68D9683B68DAB238
:103C6000FB6998B27B689B7900930346786903F0FF
:103C700095FCFB68DA68FB691A44FB68DA60FB684C
:103C80005A69FB691A44FB685A613B685A013B69EF
:103C9000134403F510639B699BB2BA699A4209D831
:103CA000FB685A69FB681B699A4203D2FB681B696F
:103CB000002BBFD1FB681A69FB685B699A4211D877
:103CC0003B6803F00F03012202FA03F3BB603B6978
:103CD00003F500635A6BBB68DB43396901F500618A
:103CE00013404B63002318462037BD4680BD0000BB
:103CF00080B588B000AF786039607B681B68FB6175
:103D0000FB69BB61FB693C3304331B687B613B6827
:103D10005A01BB69134403F530639B683B617B68C0
:103D20009B79012B7BD13B6903F00803002B15D055
:103D30007B69614A934240F2B9803B6903F40043D6
:103D4000002B00F0B3803B685A01BB69134403F5B4
:103D500030631A464FF400439360A7E03B6903F0D9
:103D60002003002B09D03B685A01BB69134403F5BB
:103D700030631A462023936098E03B6903F02803E0
:103D8000002B40F093807B694B4A93420FD93B69EB
:103D900003F40043002B0AD03B685A01BB6913446B
:103DA00003F530631A464FF4004393607EE03A68AF
:103DB0001346DB0013449B0003F514737A68134425
:103DC0000433FB60FB681A6A3B685901BB690B440A
:103DD00003F530631B69C3F31203D21AFB685A61FF
:103DE0003B68002B14D1FB681B69002B09D17B6851
:103DF00018687B6803F29C431A46012103F064FEB5
:103E000006E0FB68DA68FB685B691A44FB68DA6005
:103E10003B68DBB21946786808F082FB46E07B69B4
:103E2000264A934224D13B6903F40043002B0AD075
:103E30003B685A01BB69134403F530631A464FF4DB
:103E40000043936032E03B6903F02003002B08D06D
:103E50003B685A01BB69134403F530631A462023BB
:103E600093603B68DBB21946786808F059FB1DE0A7
:103E70003B68002B14D179683A681346DB00134481
:103E80009B000B4403F519731B68002B08D17B685A
:103E900018687B6803F29C431A46002103F014FE65
:103EA0003B68DBB21946786808F03AFB00231846F5
:103EB0002037BD4680BD00BF0A30544F0A31544FF1
:103EC00080B586B000AF786039607B681B687B6125
:103ED0007B693B617B693C3304331B68FB603B6857
:103EE0005A013B69134403F530639B68BB60FB6870
:103EF000154A93420ED9BB6803F40043002B09D046
:103F00003B685A013B69134403F530631A464FF48A
:103F100000439360786808F0F1FAFB680A4A93421C
:103F20000CD97B689B79012B08D17B6818687B686A
:103F300003F29C431A46012103F0C6FD00231846F4
:103F40001837BD4680BD00BF0A30544F80B485B0DD
:103F500000AF78600B46FB7013463B807B681B68A4
:103F60005B6ABB60FB78002B07D13B8819047B6838
:103F70001B68BA680A439A6228E07B681B689B6AE0
:103F80001B0CBA681344BB600023FB730DE07B6815
:103F90001A68FB7B40339B0013445B681B0CBA68B8
:103FA0001344BB60FB7B0133FB73FA7BFB78013B63
:103FB0009A42ECD33B8818047B681968FB78013B74
:103FC000BA68024340339B000B445A6000231846F2
:103FD0001437BD465DF8047B704780B483B000AFF2
:103FE00078600B467B807B681B687A885A62002366
:103FF00018460C37BD465DF8047B704780B483B02B
:1040000000AF78600B46FB7000BF0C37BD465DF813
:10401000047B704780B586B000AF78607B68002B6A
:1040200001D1012367E27B681B6803F00103002BC9
:1040300075D0884B9B6803F00C03042B0CD0854B88
:104040009B6803F00C03082B12D1824B5B6803F4CE
:104050008003B3F5800F0BD17E4B1B6803F4003354
:10406000002B5BD07B685B68002B57D1012342E2B9
:104070007B685B68B3F5803F06D1764B1B68754A59
:1040800043F4803313601DE07B685B68B3F5A02FB9
:104090000CD1704B1B686F4A43F4802313606D4B47
:1040A0001B686C4A43F4803313600BE0694B1B6858
:1040B000684A23F480331360664B1B68654A23F417
:1040C000802313607B685B68002B13D0FDF77AFDBB
:1040D000386108E0FDF776FD02463B69D31A642B90
:1040E00001D9032307E25B4B1B6803F40033002B69
:1040F000F0D014E0FDF766FD386108E0FDF762FDE1
:1041000002463B69D31A642B01D90323F3E1514BD7
:104110001B6803F40033002BF0D100E000BF7B6884
:104120001B6803F00203002B63D04A4B9B6803F02B
:104130000C03002B0BD0474B9B6803F00C03082BA0
:104140001CD1444B5B6803F48003002B16D1414B18
:104150001B6803F00203002B05D07B68DB68012B92
:1041600001D00123C7E13B4B1B6823F0F8027B68B9
:104170001B69DB00374913430B603AE07B68DB685F
:10418000002B20D0344B01221A60FDF71BFD386153
:1041900008E0FDF717FD02463B69D31A022B01D94F
:1041A0000323A8E12B4B1B6803F00203002BF0D084
:1041B000284B1B6823F0F8027B681B69DB0025494C
:1041C00013430B6015E0244B00221A60FDF7FAFC44
:1041D000386108E0FDF7F6FC02463B69D31A022B72
:1041E00001D9032387E11B4B1B6803F00203002B5B
:1041F000F0D17B681B6803F00803002B36D07B6886
:104200005B69002B16D0154B01221A60FDF7DAFC12
:10421000386108E0FDF7D6FC02463B69D31A022B51
:1042200001D9032367E10B4B5B6F03F00203002B03
:10423000F0D01BE0094B00221A60FDF7C3FC386187
:104240000EE0FDF7BFFC02463B69D31A022B07D9EB
:10425000032350E10038024000004742800E4742ED
:10426000884B5B6F03F00203002BEAD17B681B686D
:1042700003F00403002B00F097800023FB75814BB3
:104280001B6C03F08053002B0FD10023BB607D4BD0
:104290001B6C7C4A43F0805313647A4B1B6C03F015
:1042A0008053BB60BB680123FB75774B1B6803F42D
:1042B0008073002B18D1744B1B68734A43F48073CE
:1042C0001360FDF77FFC386108E0FDF77BFC0246D8
:1042D0003B69D31A022B01D903230CE16A4B1B68FB
:1042E00003F48073002BF0D07B689B68012B06D110
:1042F000644B1B6F634A43F0010313671CE07B6848
:104300009B68052B0CD15F4B1B6F5E4A43F0040387
:1043100013675C4B1B6F5B4A43F0010313670BE0B1
:10432000584B1B6F574A23F001031367554B1B6F04
:10433000544A23F0040313677B689B68002B15D055
:10434000FDF740FC38610AE0FDF73CFC02463B69A2
:10435000D31A41F28832934201D90323CBE0494B6F
:104360001B6F03F00203002BEED014E0FDF72AFCD4
:1043700038610AE0FDF726FC02463B69D31A41F298
:104380008832934201D90323B5E03E4B1B6F03F003
:104390000203002BEED1FB7D012B05D1394B1B6CA9
:1043A000384A23F0805313647B689B69002B00F02C
:1043B000A180344B9B6803F00C03082B5CD07B6816
:1043C0009B69022B41D1314B00221A60FDF7FAFBA9
:1043D000386108E0FDF7F6FB02463B69D31A022B71
:1043E00001D9032387E0274B1B6803F00073002BE0
:1043F000F0D17B68DA697B681B6A1A437B685B6A69
:104400009B011A437B689B6A5B08013B1B041A43B0
:104410007B68DB6A1B061B4913434B601B4B012265
:104420001A60FDF7CFFB386108E0FDF7CBFB0246D1
:104430003B69D31A022B01D903235CE0114B1B68A3
:1044400003F00073002BF0D054E0104B00221A60F0
:10445000FDF7B8FB386108E0FDF7B4FB02463B69A5
:10446000D31A022B01D9032345E0064B1B6803F046
:104470000073002BF0D13DE07B689B69012B07D1D5
:10448000012338E0003802400070004060004742DD
:104490001B4B5B68FB607B689B69012B28D0FB682A
:1044A00003F480027B68DB699A4221D1FB6803F048
:1044B0003F027B681B6A9A421AD1FA6847F6C073BA
:1044C00013407A68526A9201934211D1FB6803F457
:1044D00040327B689B6A5B08013B1B049A4207D110
:1044E000FB6803F070627B68DB6A1B069A4201D0AE
:1044F000012300E0002318461837BD4680BD00BFE9
:104500000038024080B584B000AF786039607B68C5
:10451000002B01D10123CCE0684B1B6803F007039B
:104520003A689A420CD9654B3A68D2B21A70634B1A
:104530001B6803F007033A689A4201D00123B8E0F0
:104540007B681B6803F00203002B20D07B681B688C
:1045500003F00403002B05D0594B9B68584A43F4E1
:10456000E05393607B681B6803F00803002B05D0C1
:10457000534B9B68524A43F460439360504B9B6893
:1045800023F0F0027B689B684D4913438B607B6886
:104590001B6803F00103002B44D07B685B68012B90
:1045A00007D1474B1B6803F40033002B19D10123BB
:1045B0007FE07B685B68022B03D07B685B68032B22
:1045C00007D13F4B1B6803F00073002B09D1012377
:1045D0006FE03B4B1B6803F00203002B01D101236A
:1045E00067E0374B9B6823F003027B685B683449C4
:1045F00013438B60FDF7E6FAF8600AE0FDF7E2FA94
:104600000246FB68D31A41F28832934201D9032350
:104610004FE02B4B9B6803F00C027B685B689B00B0
:104620009A42EBD1254B1B6803F007033A689A4284
:104630000CD2224B3A68D2B21A70204B1B6803F09E
:1046400007033A689A4201D0012332E07B681B6875
:1046500003F00403002B08D0194B9B6823F4E052AD
:104660007B68DB68164913438B607B681B6803F02B
:104670000803002B09D0124B9B6823F460427B682F
:104680001B69DB000E4913438B6000F021F80246E2
:104690000B4B9B681B0903F00F030A49CB5C22FA02
:1046A00003F3094A1360094B1B681846FDF704F928
:1046B000002318461037BD4680BD00BF003C0240B5
:1046C0000038024094EE000814000020180000207A
:1046D0002DE9B04F90B000AF00237B630023FB6354
:1046E00000233B630023BB63594B9B6803F00C031F
:1046F000082B0DD0082B00F2A180002B02D0042B38
:1047000003D09BE0534BBB639BE0534BBB6398E0F0
:104710004F4B5B6803F03F037B634D4B5B6803F4D7
:104720008003002B28D04A4B5B689B0900223B6228
:104730007A623B6AC3F308000021474B03FB01F296
:10474000002300FB03F31344434AA0FB0212FA6266
:104750000A46BA62FA6A1344FB627B6B0022BB61B1
:10476000FA61D7E90623D7E90A01FBF789FD02467A
:104770000B461346FB6353E0354B5B689B090022F5
:104780003B617A613B69C3F3080A4FF0000B524664
:104790005B464FF000004FF00001590141EAD26141
:1047A000500102460B46B2EB0A0863EB0B094FF0CF
:1047B00000024FF000034FEA891343EA98634FEA7F
:1047C0008812B2EB080463EB09054FF000024FF0CA
:1047D0000003EB0043EA5473E20014461D4614EB59
:1047E0000A033B6045EB0B037B604FF000024FF088
:1047F0000003D7E9004529468B02214643EA91533D
:1048000021468A02104619467B6B0022BB60FA6083
:10481000D7E90223FBF734FD02460B461346FB6340
:104820000B4B5B681B0C03F0030301335B003B6322
:10483000FA6B3B6BB2FBF3F3BB6302E0054BBB636C
:1048400000BFBB6B18464037BD46BDE8B08F00BF08
:10485000003802400024F40040787D0180B400AFAD
:10486000034B1B681846BD465DF8047B704700BFCC
:104870001400002080B500AFFFF7F0FF0246054BA3
:104880009B689B0A03F007030349CB5C22FA03F3FE
:10489000184680BD00380240A4EE000880B500AF85
:1048A000FFF7DCFF0246054B9B685B0B03F0070339
:1048B0000349CB5C22FA03F3184680BD003802405E
:1048C000A4EE000880B483B000AF786039607B68E4
:1048D0000F221A60124B9B6803F003027B685A6038
:1048E0000F4B9B6803F0F0027B689A600C4B9B684F
:1048F00003F4E0527B68DA60094B9B68DB0803F441
:10490000E0527B681A61074B1B6803F007023B68A3
:104910001A6000BF0C37BD465DF8047B704700BFCE
:1049200000380240003C024080B582B000AF7860A1
:104930007B68002B01D1012341E07B6893F83D3077
:10494000DBB2002B06D17B68002283F83C2078681C
:10495000FCF77CFE7B68022283F83D207B681A68A6
:104960007B6804331946104600F0D2FB7B680122B5
:1049700083F846207B68012283F83E207B68012271
:1049800083F83F207B68012283F840207B68012266
:1049900083F841207B68012283F842207B68012252
:1049A00083F843207B68012283F844207B6801223E
:1049B00083F845207B68012283F83D2000231846B8
:1049C0000837BD4680BD000080B485B000AF786078
:1049D0007B6893F83D30DBB2012B01D0012344E02A
:1049E0007B68022283F83D207B681B68DA687B685D
:1049F0001B6842F00102DA607B681B681E4A934222
:104A000018D07B681B68B3F1804F13D07B681B689C
:104A10001A4A93420ED07B681B68194A934209D008
:104A20007B681B68174A934204D07B681B68164A50
:104A3000934211D17B681B689B6803F00703FB60FE
:104A4000FB68062B10D07B681B681A687B681B68A4
:104A500042F001021A6007E07B681B681A687B68F5
:104A60001B6842F001021A60002318461437BD4645
:104A70005DF8047B704700BF000001400004004067
:104A800000080040000C00400040014080B483B0AA
:104A900000AF78607B681B68DA687B681B6822F06F
:104AA0000102DA607B681B681A6A41F21113134035
:104AB000002B0FD17B681B681A6A40F244431340F5
:104AC000002B07D17B681B681A687B681B6822F083
:104AD00001021A607B68012283F83D2000231846FA
:104AE0000C37BD465DF8047B704780B586B000AFDB
:104AF000786039607B68002B01D1012397E07B68E7
:104B000093F83D30DBB2002B06D17B68002283F89E
:104B10003C207868FCF7C0FD7B68022283F83D20CA
:104B20007B681B689B687A68126823F4804323F0D3
:104B3000070393607B681A687B6804331946104644
:104B400000F0E6FA7B681B689B687B617B681B68EA
:104B50009B693B617B681B681B6AFB603B681B6849
:104B60007A6913437B613B6923F4407323F00303A9
:104B70003B613B689A683B689B691B0213433A6937
:104B800013433B613B6923F4406323F00C033B6117
:104B90003B6923F4704323F0F0033B613B68DA6820
:104BA0003B68DB691B0213433A6913433B613B6873
:104BB0001B691A013B681B6A1B0313433A691343C1
:104BC0003B61FB6823F02203FB60FB6823F0880352
:104BD000FB603B685A683B685B691B011343FA68DA
:104BE0001343FB607B681B687A699A607B681B686B
:104BF0003A699A617B681B68FA681A627B680122CD
:104C000083F846207B68012283F83E207B680122DE
:104C100083F83F207B68012283F842207B680122D1
:104C200083F843207B68012283F83D200023184647
:104C30001837BD4680BD80B584B000AF786039605C
:104C40007B6893F83E30FB737B6893F83F30BB730F
:104C50007B6893F842307B737B6893F843303B73F7
:104C60003B68002B10D1FB7B012B02D17B7B012BFE
:104C700001D0012369E07B68022283F83E207B6833
:104C8000022283F8422031E03B68042B10D1BB7B29
:104C9000012B02D13B7B012B01D0012355E07B6826
:104CA000022283F83F207B68022283F843201DE024
:104CB000FB7B012B08D1BB7B012B05D17B7B012B1F
:104CC00002D13B7B012B01D001233EE07B68022215
:104CD00083F83E207B68022283F83F207B68022213
:104CE00083F842207B68022283F843203B68002B34
:104CF00003D03B68042B08D00FE07B681B680122BF
:104D00000021184600F02AFB16E07B681B68012290
:104D10000421184600F022FB0EE07B681B6801228C
:104D20000021184600F01AFB7B681B680122042151
:104D3000184600F013FB00BF7B681B681A687B688D
:104D40001B6842F001021A60002318461037BD4666
:104D500080BD80B584B000AF78607B681B68DB687D
:104D6000FB607B681B681B69BB60BB6803F00203C8
:104D7000002B20D0FB6803F00203002B1BD07B68C4
:104D80001B686FF002021A617B6801221A777B6848
:104D90001B689B6903F00303002B03D0786800F0C5
:104DA00099F905E0786800F08BF9786800F09CF9D3
:104DB0007B6800221A77BB6803F00403002B20D025
:104DC000FB6803F00403002B1BD07B681B686FF0AB
:104DD00004021A617B6802221A777B681B689B6950
:104DE00003F44073002B03D0786800F073F905E0FA
:104DF000786800F065F9786800F076F97B68002241
:104E00001A77BB6803F00803002B20D0FB6803F07F
:104E10000803002B1BD07B681B686FF008021A6127
:104E20007B6804221A777B681B68DB6903F0030345
:104E3000002B03D0786800F04DF905E0786800F0A9
:104E40003FF9786800F050F97B6800221A77BB6858
:104E500003F01003002B20D0FB6803F01003002B9D
:104E60001BD07B681B686FF010021A617B680822F8
:104E70001A777B681B68DB6903F44073002B03D04F
:104E8000786800F027F905E0786800F019F978688B
:104E900000F02AF97B6800221A77BB6803F001034F
:104EA000002B0CD0FB6803F00103002B07D07B68BC
:104EB0001B686FF001021A617868FBF7EFFEBB68B0
:104EC00003F08003002B0CD0FB6803F08003002B61
:104ED00007D07B681B686FF080021A61786800F069
:104EE000DBFABB6803F04003002B0CD0FB6803F037
:104EF0004003002B07D07B681B686FF040021A61EB
:104F0000786800F0FBF8BB6803F02003002B0CD09E
:104F1000FB6803F02003002B07D07B681B686FF051
:104F200020021A61786800F0ADFA00BF1037BD4664
:104F300080BD80B584B000AF786039600023FB731A
:104F40007B6893F83C30012B01D10223B4E07B68ED
:104F5000012283F83C207B68022283F83D207B6895
:104F60001B689B68BB60BB6823F07703BB60BB68B2
:104F700023F47F43BB607B681B68BA689A603B6818
:104F80001B68B3F5005F3ED0B3F5005F00F2878089
:104F9000B3F5805F00F08680B3F5805F7FD8702B1B
:104FA0001AD0702B7BD8602B50D0602B77D8502B29
:104FB0003CD0502B73D8402B58D0402B6FD8302B7F
:104FC00064D0302B6BD8202B60D0202B67D8002BDF
:104FD0005CD0102B5AD062E07B6818683B689968F7
:104FE0003B685A683B68DB6800F098F97B681B688F
:104FF0009B68BB60BB6843F07703BB607B681B6842
:10500000BA689A604FE07B6818683B6899683B68AB
:105010005A683B68DB6800F081F97B681B689A6816
:105020007B681B6842F480429A603CE07B681868A9
:105030003B6859683B68DB681A4600F0F5F87B6806
:105040001B685021184600F04EF92CE07B68186868
:105050003B6859683B68DB681A4600F014F97B68C6
:105060001B686021184600F03EF91CE07B68186858
:105070003B6859683B68DB681A4600F0D5F87B68E6
:105080001B684021184600F02EF90CE07B681A6876
:105090003B681B681946104600F025F903E0012320
:1050A000FB7300E000BF7B68012283F83D207B6832
:1050B000002283F83C20FB7B18461037BD4680BD9C
:1050C00080B483B000AF786000BF0C37BD465DF898
:1050D000047B704780B483B000AF786000BF0C37AA
:1050E000BD465DF8047B704780B483B000AF786044
:1050F00000BF0C37BD465DF8047B704780B483B0B9
:1051000000AF786000BF0C37BD465DF8047B704788
:1051100080B485B000AF786039607B681B68FB6045
:105120007B683A4A93420FD07B68B3F1804F0BD033
:105130007B68374A934207D07B68364A934203D054
:105140007B68354A934208D1FB6823F07003FB600B
:105150003B685B68FA681343FB607B682B4A9342A9
:105160001BD07B68B3F1804F17D07B68284A9342ED
:1051700013D07B68274A93420FD07B68264A93421C
:105180000BD07B68254A934207D07B68244A934220
:1051900003D07B68234A934208D1FB6823F4407311
:1051A000FB603B68DB68FA681343FB60FB6823F035
:1051B00080023B685B691343FB607B68FA681A6096
:1051C0003B689A687B68DA623B681A687B689A6217
:1051D0007B680E4A934203D13B681A697B681A6365
:1051E0007B6801225A617B681B6903F00103012B74
:1051F00005D17B681B6923F001027B681A6100BF3F
:105200001437BD465DF8047B704700BF00000140C5
:105210000004004000080040000C00400040014035
:10522000004401400048014080B487B000AFF860FE
:10523000B9607A60FB681B6A7B61FB681B6A23F0BC
:105240000102FB681A62FB689B693B613B6923F0C2
:10525000F0033B617B681B013A6913433B617B6947
:1052600023F00A037B617A69BB6813437B61FB68A7
:105270003A699A61FB687A691A6200BF1C37BD46B9
:105280005DF8047B704780B487B000AFF860B96008
:105290007A60FB681B6A7B61FB681B6A23F0100263
:1052A000FB681A62FB689B693B613B6923F47043AE
:1052B0003B617B681B033A6913433B617B6923F0C5
:1052C000A0037B61BB681B017A6913437B61FB68A8
:1052D0003A699A61FB687A691A6200BF1C37BD4659
:1052E0005DF8047B704780B485B000AF78603960AA
:1052F0007B689B68FB60FB6823F07003FB603A6887
:10530000FB68134343F00703FB607B68FA689A600D
:1053100000BF1437BD465DF8047B704780B487B08A
:1053200000AFF860B9607A603B60FB689B687B61A6
:105330007B6923F47F437B613B681A027B681A43D5
:10534000BB6813437A6913437B61FB687A699A608F
:1053500000BF1C37BD465DF8047B704780B487B042
:1053600000AFF860B9607A60BB6803F01F030122E8
:1053700002FA03F37B61FB681A6A7B69DB431A401C
:10538000FB681A62FB681A6ABB6803F01F0379683E
:1053900001FA03F31A43FB681A6200BF1C37BD46CB
:1053A0005DF8047B7047000080B485B000AF786082
:1053B00039607B6893F83C30012B01D1022350E027
:1053C0007B68012283F83C207B68022283F83D2021
:1053D0007B681B685B68FB607B681B689B68BB60C5
:1053E000FB6823F07003FB603B681B68FA6813439B
:1053F000FB607B681B68FA685A607B681B681C4A04
:10540000934218D07B681B68B3F1804F13D07B6840
:105410001B68184A93420ED07B681B68164A934259
:1054200009D07B681B68154A934204D07B681B68CF
:10543000134A93420CD1BB6823F08003BB603B68E6
:105440005B68BA681343BB607B681B68BA689A6084
:105450007B68012283F83D207B68002283F83C2092
:10546000002318461437BD465DF8047B704700BF23
:10547000000001400004004000080040000C004013
:105480000040014080B483B000AF786000BF0C37AB
:10549000BD465DF8047B704780B483B000AF786090
:1054A00000BF0C37BD465DF8047B704780B582B005
:1054B00000AF78607B68002B01D1012342E07B685C
:1054C00093F84130DBB2002B06D17B68002283F8D1
:1054D00040207868FCF76CF97B68242283F841202F
:1054E0007B681B68DA687B681B6822F40052DA600C
:1054F000786800F0BDFD7B681B681A697B681B68D3
:1055000022F490421A617B681B685A697B681B68A9
:1055100022F02A025A617B681B68DA687B681B6884
:1055200042F40052DA607B6800225A647B682022D1
:1055300083F841207B68202283F842207B68002288
:105540005A63002318460837BD4680BD80B58AB02F
:1055500002AFF860B9603B601346FB8000237B61BB
:10556000FB6893F84130DBB2202B75D1BB68002B70
:1055700002D0FB88002B01D101236EE0FB680022E2
:105580005A64FB68212283F84120FCF71BFB7861F9
:10559000FB68FA889A84FB68FA88DA84FB689B685F
:1055A000B3F5805F08D1FB681B69002B04D1002391
:1055B000FB61BB68BB6103E0BB68FB610023BB61AF
:1055C0002EE03B6800937B6900228021F86800F0A0
:1055D0001FFB0346002B05D0FB68202283F84120E7
:1055E00003233AE0FB69002B0BD1BB691B881A46E9
:1055F000FB681B68C2F308025A60BB690233BB61D7
:1056000007E0FB691A78FB681B685A60FB69013385
:10561000FB61FB68DB8C9BB2013B9AB2FB68DA84CE
:10562000FB68DB8C9BB2002BCBD13B6800937B6982
:1056300000224021F86800F0EBFA0346002B05D069
:10564000FB68202283F84120032306E0FB68202228
:1056500083F84120002300E0022318462037BD468E
:1056600080BD80B584B000AFF860B9601346FB80A0
:10567000FB6893F84230DBB2202B12D1BB68002BC1
:1056800002D0FB88002B01D101230BE0FB68002234
:105690001A63FB881A46B968F86800F012FB0346E3
:1056A00000E0022318461037BD4680BD80B5BAB071
:1056B00000AF78607B681B681B68C7F8E4307B68C4
:1056C0001B68DB68C7F8E0307B681B685B69C7F85C
:1056D000DC300023C7F8D8300023C7F8D430D7F81F
:1056E000E43003F00F03C7F8D830D7F8D830002BD8
:1056F0000FD1D7F8E43003F02003002B09D0D7F8FE
:10570000E03003F02003002B03D0786800F0F2FBB8
:105710005BE2D7F8D830002B00F0DE80D7F8DC3021
:1057200003F00103002B06D1D7F8E03003F49073A7
:10573000002B00F0D180D7F8E43003F00103002BF8
:105740000BD0D7F8E03003F48073002B05D07B68D2
:105750005B6C43F001027B685A64D7F8E43003F0D5
:105760000403002B0BD0D7F8DC3003F00103002B2F
:1057700005D07B685B6C43F002027B685A64D7F803
:10578000E43003F00203002B0BD0D7F8DC3003F039
:105790000103002B05D07B685B6C43F004027B683F
:1057A0005A64D7F8E43003F00803002B11D0D7F87F
:1057B000E03003F02003002B05D1D7F8DC3003F0F4
:1057C0000103002B05D07B685B6C43F008027B680B
:1057D0005A647B685B6C002B00F0F281D7F8E430F0
:1057E00003F02003002B08D0D7F8E03003F02003AB
:1057F000002B02D0786800F07DFB7B681B685B693A
:1058000003F04003402B0CBF01230023DBB2C7F899
:10581000D4307B685B6C03F00803002B03D1D7F80E
:10582000D430002B4FD0786800F085FA7B681B6875
:105830005B6903F04003402B41D17B681B68143344
:10584000C7F89C30D7F89C3053E8003FC7F8983031
:10585000D7F8983023F04003C7F8D0307B681B6836
:105860001433D7F8D020C7F8A820C7F8A430D7F849
:10587000A410D7F8A82041E80023C7F8A030D7F833
:10588000A030002BD9D17B68DB6B002B13D07B6859
:10589000DB6B7E4A1A657B68DB6B1846FCF714FBF2
:1058A0000346002B16D07B68DB6B1B6D7A68D26BCE
:1058B000104698470EE0786800F094F90AE078689E
:1058C00000F090F906E0786800F08CF97B6800221F
:1058D0005A6475E100BF73E17B681B6B012B40F0DC
:1058E0004F81D7F8E43003F01003002B00F048811B
:1058F000D7F8E03003F01003002B00F041810023C3
:10590000BB607B681B681B68BB607B681B685B684F
:10591000BB60BB687B681B685B6903F04003402B7E
:1059200040F0B6807B68DB6B1B685B68A7F8BE3015
:10593000B7F8BE30002B00F045817B689B8DB7F82F
:10594000BE209A4280F03E817B68B7F8BE20DA859F
:105950007B68DB6BDB69B3F5807F00F088807B6858
:105960001B680C33C7F88830D7F8883053E8003FFD
:10597000C7F88430D7F8843023F48073C7F8B83080
:105980007B681B680C33D7F8B820C7F89420C7F899
:105990009030D7F89010D7F8942041E80023C7F84A
:1059A0008C30D7F88C30002BD9D17B681B6814332E
:1059B0007B677B6F53E8003F3B673B6F23F001033E
:1059C000C7F8B4307B681B681433D7F8B420C7F825
:1059D0008020FB67F96FD7F8802041E80023BB6780
:1059E000BB6F002BE1D17B681B6814333B663B6EB9
:1059F00053E8003FFB65FB6D23F04003C7F8B03070
:105A00007B681B681433D7F8B020FA66BB66B96EA2
:105A1000FA6E41E800237B667B6E002BE3D17B6846
:105A2000202283F842207B6800221A637B681B686F
:105A30000C33FB64FB6C53E8003FBB64BB6C23F08E
:105A40001003C7F8AC307B681B680C33D7F8AC2068
:105A5000BA657B65796DBA6D41E800233B653B6DA6
:105A6000002BE3D17B68DB6B1846FCF7BDF97B6844
:105A700002225A637B689A8D7B68DB8D9BB2D31AB6
:105A80009BB21946786800F0B7F89BE0FD5D00080E
:105A90007B689A8D7B68DB8D9BB2D31AA7F8CE30DA
:105AA0007B68DB8D9BB2002B00F08E80B7F8CE3088
:105AB000002B00F089807B681B680C33BB63BB6BD9
:105AC00053E8003F7B637B6B23F49073C7F8C830C7
:105AD0007B681B680C33D7F8C8207A643B64396C48
